:0E0000000C9439000C9400000C9400000C9439
:10000E0000000C9400000C9400000C9400000C9462
:10001E0000000C9400000C9400000C9400000C9452
:10002E0000000C9400000C9400000C9400000C9442
:10003E0000000C9400000C9400000C9400000C9432
:10004E0000000C9400003F0006005B004F006600AD
:10005E006D007D0007007F006F00400015006002FC
:10006E0054000000F894EE27ECBBF1E0FBBFEBBFB1
:10007E00E5BF8DE0A2E0BB27ED938A95E9F780E01E
:10008E0098E0A0E6ED930197E9F7EAE6F0E08591B6
:10009E009591009761F0A591B59105901590BF01CE
:1000AE00F00105900D920197E1F7FB01F0CFEFE51E
:1000BE00EDBFE8E0EEBFC0E6D2E00C94D5001A9397
:1000CE000A9300E010E00430E0E01E070CF061C07F
:1000DE00002E012A99F4A898A99AAA9AAB9A9C99EB
:1000EE0003C0E1E0F0E057C09D9903C0E2E0F0E00C
:1000FE0052C09E9903C0E3E0F0E04DC0E1E0F0E0B5
:10010E00E017F10799F4A89AA998AA9AAB9A9C9924
:10011E0003C0E4E0F0E03FC09D9903C0E5E0F0E0ED
:10012E003AC09E9903C0E6E0F0E035C0E2E0F0E0B0
:10013E00E017F10799F4A89AA99AAA98AB9A9C99F4
:10014E0003C0E7E0F0E027C09D9903C0E8E0F0E0CF
:10015E0022C09E9903C0E9E0F0E01DC0E3E0F0E0AC
:10016E00E017F10799F4A89AA99AAA9AAB989C99C4
:10017E0003C0EAE0F0E00FC09D9903C0E0E0F0E0BC
:10018E000AC09E9903C0EBE0F0E005C00F5F1F4F61
:10019E009ACFECE0F0E0099119910895EFE0E4BBFD
:1001AE00EFEFE5BBE1BBE0E0E2BB229788DFE8833F
:1001BE00F983A881B9811C9741F0A0E6B2E0EE0F59
:1001CE00FF1FAE0FBF1FEC91E2BB2296EECFFFCF0B
:00000001FF
