:080000000C9438000C94000080
:100008000C9400000C9400000C9400000C94000068
:100018000C9400000C9400000C9400000C94000058
:100028000C9400000C9400000C9400000C94000048
:100038000C9400000C9400000C9400000C94000038
:100048000C9400000C9400000C9400003F00060083
:100058005B004F0066006D007D0007007F006F00A9
:100068001300600254000000F894EE27ECBBF1E0A6
:10007800FBBFEBBFE5BF8DE0A2E0BB27ED938A9500
:10008800E9F780E098E0A0E6ED930197E9F7E8E664
:10009800F0E085919591009761F0A591B591059053
:1000A8001590BF01F00105900D920197E1F7FB0152
:1000B800F0CFEFE5EDBFE8E0EEBFC0E6D2E00C948C
:1000C8006500E0E0EABBEBBBE7BBE8BBEFEFE4BBF6
:1000D800E0E0E5BBE1BBE2BB44245524EAE0F0E004
:1000E8004E165F068CF4F201A0E6B2E0EE0FFF1F99
:1000F800AE0FBF1FEC91E5BBA4EFB1E00E948A00F0
:10010800F20131962F01EACFE7CFFFCF109639F0F1
:10011800A89580ED97E00197F1F71197C9F7089531
:00000001FF
